:020000040800F2
:1000000058040020D500000803020008010200087F
:1000100000000000000000000000000000000000E0
:100020000000000000000000000000003D02000889
:10003000000000000000000005020008D9020008CE
:100040000501000805010008050100080501000878
:100050000501000805010008050100080501000868
:100060000501000805010008050100080501000858
:100070000501000805010008050100080501000848
:100080000501000805010008000000000501000846
:100090000501000805010008050100080501000828
:1000A0000501000805010008050100080501000818
:1000B0000501000800000000050100080000000024
:1000C0000348854600F048F80048004775030008DB
:1000D000580400200C4880F308880C480168090E79
:1000E0000B4A914205D10B480B4901600B480C4962
:1000F00001600C4880470C480047FEE7FEE7FEE73A
:10010000FEE7FEE7FEE700005804002004000000C0
:100110001F00000018100240010000000000014014
:1001200000000000E1020008C100000830B50B46E5
:10013000014600202022012409E00D46D5409D42C1
:1001400005D31D469540491B254695404019154647
:10015000521E002DF1DC30BD064C0125064E05E097
:10016000E36807CC2B430C3C98471034B442F7D3D8
:10017000FFF7AAFF84040008A404000801B503489F
:100180000099016001680029FCD108BD140000201D
:10019000F0B50022012423460D6893401D409D4286
:1001A0002AD10D79012D01D0022D12D18768550079
:1001B0000326AE40B74387604E79AE4085682E4334
:1001C000866085889D43858085888B7993401D4313
:1001D0008580066855000323AB409E4306600E7978
:1001E0000768AE403E430660C6689E43C660CB7952
:1001F000AB40C5682B43C360521C102ACBD3F0BD63
:10020000FEE7704770470000044A0029516901D099
:10021000014300E08143516170470000001002403B
:100220000449820089588A8A034B4000185A424088
:100230008A8270472C0000202E04000870470000BE
:100240001CB50021224801910091026801231B0482
:100250001A4302605B000522120304681C400094EC
:10026000019C641C0194009C002C02D1019C9442CE
:10027000F3D10268920328D501210091154A11217A
:100280001160416841604168416041687F22D2034A
:100290009143416041681122120411434160016899
:1002A000012212061143016001688901FCD54168F1
:1002B0008908890041604168022211434160416818
:1002C0000907890F0229FAD11CBD00911CBD00004D
:1002D000001002400020024010B500F031F810BDBF
:1002E00010B5144801680122114301604168124AA7
:1002F000114041600168114A11400160016801220A
:1003000092049143016041683F221204914341608D
:10031000C16A09090901C162016BFF22543291438C
:100320000163416B49084900416300218160FFF787
:1003300087FF10BD001002400CB8FFF8FFFFF6FE6B
:1003400003480168002902D00168491E0160704716
:100350001400002002E008C8121F08C1002AFAD1C8
:1003600070477047002001E001C1121F002AFBD135
:100370007047000001214804FFF746FF41211B4858
:10038000490101600121017100248471032141713F
:10039000C47101460920C006FFF7FAFE1449202067
:1003A000088114487D21C9000068FFF7BFFE12498B
:1003B000401E884218D81149486111480722C36974
:1003C0001B021B0A4D042B43C3618C610A61002090
:1003D000FFF726FF3220FFF7D1FE0020FFF720FFB6
:1003E0006420FFF7CBFEF2E7FEE7000018000020D4
:1003F0002000004800000020FFFFFF0000E000E0B8
:1004000004ED00E002030101040008000000020006
:100410000000020000000200020102020202000DC0
:100420000808090607000707070707070500200057
:100430000008001004000000000002000000080096
:100440000000080000001000002000010001000270
:1004500040008000010000000000080000000400CF
:10046000000008000000080000000800000008006C
:100470000000020000200001000100024000800096
:1004800001000000A4040008000000205800000043
:1004900054030008FC040008580000200004000079
:1004A00064030008006CDC02000000000000000093
:1004B0000102030406070809000000000000000014
:1004C0000000000000440040000000480000004818
:1004D000000000480008004800080048000C0048E0
:1004E00000080048000400480008004800080048D0
:0C04F00000080048000800480000004818
:04000005080000C12E
:00000001FF
